{
  "contractName": "FarmToken",
  "abi": [
    {
      "inputs": [
        {
          "internalType": "address",
          "name": "_token",
          "type": "address"
        }
      ],
      "stateMutability": "nonpayable",
      "type": "constructor"
    },
    {
      "anonymous": false,
      "inputs": [
        {
          "indexed": true,
          "internalType": "address",
          "name": "owner",
          "type": "address"
        },
        {
          "indexed": true,
          "internalType": "address",
          "name": "spender",
          "type": "address"
        },
        {
          "indexed": false,
          "internalType": "uint256",
          "name": "value",
          "type": "uint256"
        }
      ],
      "name": "Approval",
      "type": "event"
    },
    {
      "anonymous": false,
      "inputs": [
        {
          "indexed": true,
          "internalType": "address",
          "name": "from",
          "type": "address"
        },
        {
          "indexed": true,
          "internalType": "address",
          "name": "to",
          "type": "address"
        },
        {
          "indexed": false,
          "internalType": "uint256",
          "name": "value",
          "type": "uint256"
        }
      ],
      "name": "Transfer",
      "type": "event"
    },
    {
      "inputs": [
        {
          "internalType": "address",
          "name": "owner",
          "type": "address"
        },
        {
          "internalType": "address",
          "name": "spender",
          "type": "address"
        }
      ],
      "name": "allowance",
      "outputs": [
        {
          "internalType": "uint256",
          "name": "",
          "type": "uint256"
        }
      ],
      "stateMutability": "view",
      "type": "function"
    },
    {
      "inputs": [
        {
          "internalType": "address",
          "name": "spender",
          "type": "address"
        },
        {
          "internalType": "uint256",
          "name": "amount",
          "type": "uint256"
        }
      ],
      "name": "approve",
      "outputs": [
        {
          "internalType": "bool",
          "name": "",
          "type": "bool"
        }
      ],
      "stateMutability": "nonpayable",
      "type": "function"
    },
    {
      "inputs": [
        {
          "internalType": "address",
          "name": "account",
          "type": "address"
        }
      ],
      "name": "balanceOf",
      "outputs": [
        {
          "internalType": "uint256",
          "name": "",
          "type": "uint256"
        }
      ],
      "stateMutability": "view",
      "type": "function"
    },
    {
      "inputs": [],
      "name": "decimals",
      "outputs": [
        {
          "internalType": "uint8",
          "name": "",
          "type": "uint8"
        }
      ],
      "stateMutability": "view",
      "type": "function"
    },
    {
      "inputs": [
        {
          "internalType": "address",
          "name": "spender",
          "type": "address"
        },
        {
          "internalType": "uint256",
          "name": "subtractedValue",
          "type": "uint256"
        }
      ],
      "name": "decreaseAllowance",
      "outputs": [
        {
          "internalType": "bool",
          "name": "",
          "type": "bool"
        }
      ],
      "stateMutability": "nonpayable",
      "type": "function"
    },
    {
      "inputs": [
        {
          "internalType": "address",
          "name": "spender",
          "type": "address"
        },
        {
          "internalType": "uint256",
          "name": "addedValue",
          "type": "uint256"
        }
      ],
      "name": "increaseAllowance",
      "outputs": [
        {
          "internalType": "bool",
          "name": "",
          "type": "bool"
        }
      ],
      "stateMutability": "nonpayable",
      "type": "function"
    },
    {
      "inputs": [],
      "name": "name",
      "outputs": [
        {
          "internalType": "string",
          "name": "",
          "type": "string"
        }
      ],
      "stateMutability": "view",
      "type": "function"
    },
    {
      "inputs": [],
      "name": "symbol",
      "outputs": [
        {
          "internalType": "string",
          "name": "",
          "type": "string"
        }
      ],
      "stateMutability": "view",
      "type": "function"
    },
    {
      "inputs": [],
      "name": "token",
      "outputs": [
        {
          "internalType": "contract IERC20",
          "name": "",
          "type": "address"
        }
      ],
      "stateMutability": "view",
      "type": "function"
    },
    {
      "inputs": [],
      "name": "totalSupply",
      "outputs": [
        {
          "internalType": "uint256",
          "name": "",
          "type": "uint256"
        }
      ],
      "stateMutability": "view",
      "type": "function"
    },
    {
      "inputs": [
        {
          "internalType": "address",
          "name": "recipient",
          "type": "address"
        },
        {
          "internalType": "uint256",
          "name": "amount",
          "type": "uint256"
        }
      ],
      "name": "transfer",
      "outputs": [
        {
          "internalType": "bool",
          "name": "",
          "type": "bool"
        }
      ],
      "stateMutability": "nonpayable",
      "type": "function"
    },
    {
      "inputs": [
        {
          "internalType": "address",
          "name": "sender",
          "type": "address"
        },
        {
          "internalType": "address",
          "name": "recipient",
          "type": "address"
        },
        {
          "internalType": "uint256",
          "name": "amount",
          "type": "uint256"
        }
      ],
      "name": "transferFrom",
      "outputs": [
        {
          "internalType": "bool",
          "name": "",
          "type": "bool"
        }
      ],
      "stateMutability": "nonpayable",
      "type": "function"
    },
    {
      "inputs": [],
      "name": "balance",
      "outputs": [
        {
          "internalType": "uint256",
          "name": "",
          "type": "uint256"
        }
      ],
      "stateMutability": "view",
      "type": "function"
    },
    {
      "inputs": [
        {
          "internalType": "uint256",
          "name": "amount",
          "type": "uint256"
        }
      ],
      "name": "deposit",
      "outputs": [
        {
          "internalType": "bool",
          "name": "",
          "type": "bool"
        }
      ],
      "stateMutability": "nonpayable",
      "type": "function"
    },
    {
      "inputs": [
        {
          "internalType": "uint256",
          "name": "amount",
          "type": "uint256"
        }
      ],
      "name": "withDraw",
      "outputs": [
        {
          "internalType": "bool",
          "name": "",
          "type": "bool"
        }
      ],
      "stateMutability": "nonpayable",
      "type": "function"
    }
  ],
  "bytecode": "0x60806040523480156200001157600080fd5b50604051620025d5380380620025d58339818101604052810190620000379190620001e6565b6040518060400160405280600981526020017f4661726d546f6b656e00000000000000000000000000000000000000000000008152506040518060400160405280600381526020017f46524d00000000000000000000000000000000000000000000000000000000008152508160039080519060200190620000bb9291906200011f565b508060049080519060200190620000d49291906200011f565b50505080600560006101000a81548173ffffffffffffffffffffffffffffffffffffffff021916908373ffffffffffffffffffffffffffffffffffffffff16021790555050620002d0565b8280546200012d906200024c565b90600052602060002090601f0160209004810192826200015157600085556200019d565b82601f106200016c57805160ff19168380011785556200019d565b828001600101855582156200019d579182015b828111156200019c5782518255916020019190600101906200017f565b5b509050620001ac9190620001b0565b5090565b5b80821115620001cb576000816000905550600101620001b1565b5090565b600081519050620001e081620002b6565b92915050565b600060208284031215620001ff57620001fe620002b1565b5b60006200020f84828501620001cf565b91505092915050565b600062000225826200022c565b9050919050565b600073ffffffffffffffffffffffffffffffffffffffff82169050919050565b600060028204905060018216806200026557607f821691505b602082108114156200027c576200027b62000282565b5b50919050565b7f4e487b7100000000000000000000000000000000000000000000000000000000600052602260045260246000fd5b600080fd5b620002c18162000218565b8114620002cd57600080fd5b50565b6122f580620002e06000396000f3fe608060405234801561001057600080fd5b50600436106100f55760003560e01c806370a0823111610097578063b69ef8a811610066578063b69ef8a8146102c2578063b6b55f25146102e0578063dd62ed3e14610310578063fc0c546a14610340576100f5565b806370a082311461021457806395d89b4114610244578063a457c2d714610262578063a9059cbb14610292576100f5565b806318160ddd116100d357806318160ddd1461017857806323b872dd14610196578063313ce567146101c657806339509351146101e4576100f5565b806306fdde03146100fa578063095ea7b31461011857806314174f3314610148575b600080fd5b61010261035e565b60405161010f9190611a62565b60405180910390f35b610132600480360381019061012d9190611634565b6103f0565b60405161013f9190611a2c565b60405180910390f35b610162600480360381019061015d91906116a1565b61040e565b60405161016f9190611a2c565b60405180910390f35b610180610470565b60405161018d9190611c44565b60405180910390f35b6101b060048036038101906101ab91906115e1565b61047a565b6040516101bd9190611a2c565b60405180910390f35b6101ce610572565b6040516101db9190611c5f565b60405180910390f35b6101fe60048036038101906101f99190611634565b61057b565b60405161020b9190611a2c565b60405180910390f35b61022e60048036038101906102299190611574565b610627565b60405161023b9190611c44565b60405180910390f35b61024c61066f565b6040516102599190611a62565b60405180910390f35b61027c60048036038101906102779190611634565b610701565b6040516102899190611a2c565b60405180910390f35b6102ac60048036038101906102a79190611634565b6107ec565b6040516102b99190611a2c565b60405180910390f35b6102ca61080a565b6040516102d79190611c44565b60405180910390f35b6102fa60048036038101906102f591906116a1565b6108bc565b6040516103079190611a2c565b60405180910390f35b61032a600480360381019061032591906115a1565b610962565b6040516103379190611c44565b60405180910390f35b6103486109e9565b6040516103559190611a47565b60405180910390f35b60606003805461036d90611df4565b80601f016020809104026020016040519081016040528092919081815260200182805461039990611df4565b80156103e65780601f106103bb576101008083540402835291602001916103e6565b820191906000526020600020905b8154815290600101906020018083116103c957829003601f168201915b5050505050905090565b60006104046103fd610a0f565b8484610a17565b6001905092915050565b600061041a3383610be2565b6104673383600560009054906101000a900473ffffffffffffffffffffffffffffffffffffffff1673ffffffffffffffffffffffffffffffffffffffff16610db99092919063ffffffff16565b60019050919050565b6000600254905090565b6000610487848484610e3f565b6000600160008673ffffffffffffffffffffffffffffffffffffffff1673ffffffffffffffffffffffffffffffffffffffff16815260200190815260200160002060006104d2610a0f565b73ffffffffffffffffffffffffffffffffffffffff1673ffffffffffffffffffffffffffffffffffffffff16815260200190815260200160002054905082811015610552576040517f08c379a000000000000000000000000000000000000000000000000000000000815260040161054990611b44565b60405180910390fd5b6105668561055e610a0f565b858403610a17565b60019150509392505050565b60006012905090565b600061061d610588610a0f565b848460016000610596610a0f565b73ffffffffffffffffffffffffffffffffffffffff1673ffffffffffffffffffffffffffffffffffffffff16815260200190815260200160002060008873ffffffffffffffffffffffffffffffffffffffff1673ffffffffffffffffffffffffffffffffffffffff168152602001908152602001600020546106189190611cac565b610a17565b6001905092915050565b60008060008373ffffffffffffffffffffffffffffffffffffffff1673ffffffffffffffffffffffffffffffffffffffff168152602001908152602001600020549050919050565b60606004805461067e90611df4565b80601f01602080910402602001604051908101604052809291908181526020018280546106aa90611df4565b80156106f75780601f106106cc576101008083540402835291602001916106f7565b820191906000526020600020905b8154815290600101906020018083116106da57829003601f168201915b5050505050905090565b60008060016000610710610a0f565b73ffffffffffffffffffffffffffffffffffffffff1673ffffffffffffffffffffffffffffffffffffffff16815260200190815260200160002060008573ffffffffffffffffffffffffffffffffffffffff1673ffffffffffffffffffffffffffffffffffffffff168152602001908152602001600020549050828110156107cd576040517f08c379a00000000000000000000000000000000000000000000000000000000081526004016107c490611c04565b60405180910390fd5b6107e16107d8610a0f565b85858403610a17565b600191505092915050565b60006108006107f9610a0f565b8484610e3f565b6001905092915050565b6000600560009054906101000a900473ffffffffffffffffffffffffffffffffffffffff1673ffffffffffffffffffffffffffffffffffffffff166370a08231306040518263ffffffff1660e01b815260040161086791906119b1565b60206040518083038186803b15801561087f57600080fd5b505afa158015610893573d6000803e3d6000fd5b505050506040513d601f19601f820116820180604052508101906108b791906116ce565b905090565b6000808211610900576040517f08c379a00000000000000000000000000000000000000000000000000000000081526004016108f790611ac4565b60405180910390fd5b61094f333084600560009054906101000a900473ffffffffffffffffffffffffffffffffffffffff1673ffffffffffffffffffffffffffffffffffffffff166110c0909392919063ffffffff16565b6109593383611149565b60019050919050565b6000600160008473ffffffffffffffffffffffffffffffffffffffff1673ffffffffffffffffffffffffffffffffffffffff16815260200190815260200160002060008373ffffffffffffffffffffffffffffffffffffffff1673ffffffffffffffffffffffffffffffffffffffff16815260200190815260200160002054905092915050565b600560009054906101000a900473ffffffffffffffffffffffffffffffffffffffff1681565b600033905090565b600073ffffffffffffffffffffffffffffffffffffffff168373ffffffffffffffffffffffffffffffffffffffff161415610a87576040517f08c379a0000000000000000000000000000000000000000000000000000000008152600401610a7e90611ba4565b60405180910390fd5b600073ffffffffffffffffffffffffffffffffffffffff168273ffffffffffffffffffffffffffffffffffffffff161415610af7576040517f08c379a0000000000000000000000000000000000000000000000000000000008152600401610aee90611ae4565b60405180910390fd5b80600160008573ffffffffffffffffffffffffffffffffffffffff1673ffffffffffffffffffffffffffffffffffffffff16815260200190815260200160002060008473ffffffffffffffffffffffffffffffffffffffff1673ffffffffffffffffffffffffffffffffffffffff168152602001908152602001600020819055508173ffffffffffffffffffffffffffffffffffffffff168373ffffffffffffffffffffffffffffffffffffffff167f8c5be1e5ebec7d5bd14f71427d1e84f3dd0314c0f7b2291e5b200ac8c7c3b92583604051610bd59190611c44565b60405180910390a3505050565b600073ffffffffffffffffffffffffffffffffffffffff168273ffffffffffffffffffffffffffffffffffffffff161415610c52576040517f08c379a0000000000000000000000000000000000000000000000000000000008152600401610c4990611b64565b60405180910390fd5b610c5e826000836112a9565b60008060008473ffffffffffffffffffffffffffffffffffffffff1673ffffffffffffffffffffffffffffffffffffffff16815260200190815260200160002054905081811015610ce4576040517f08c379a0000000000000000000000000000000000000000000000000000000008152600401610cdb90611aa4565b60405180910390fd5b8181036000808573ffffffffffffffffffffffffffffffffffffffff1673ffffffffffffffffffffffffffffffffffffffff168152602001908152602001600020819055508160026000828254610d3b9190611d02565b92505081905550600073ffffffffffffffffffffffffffffffffffffffff168373ffffffffffffffffffffffffffffffffffffffff167fddf252ad1be2c89b69c2b068fc378daa952ba7f163c4a11628f55a4df523b3ef84604051610da09190611c44565b60405180910390a3610db4836000846112ae565b505050565b610e3a8363a9059cbb60e01b8484604051602401610dd8929190611a03565b604051602081830303815290604052907bffffffffffffffffffffffffffffffffffffffffffffffffffffffff19166020820180517bffffffffffffffffffffffffffffffffffffffffffffffffffffffff83818316178352505050506112b3565b505050565b600073ffffffffffffffffffffffffffffffffffffffff168373ffffffffffffffffffffffffffffffffffffffff161415610eaf576040517f08c379a0000000000000000000000000000000000000000000000000000000008152600401610ea690611b84565b60405180910390fd5b600073ffffffffffffffffffffffffffffffffffffffff168273ffffffffffffffffffffffffffffffffffffffff161415610f1f576040517f08c379a0000000000000000000000000000000000000000000000000000000008152600401610f1690611a84565b60405180910390fd5b610f2a8383836112a9565b60008060008573ffffffffffffffffffffffffffffffffffffffff1673ffffffffffffffffffffffffffffffffffffffff16815260200190815260200160002054905081811015610fb0576040517f08c379a0000000000000000000000000000000000000000000000000000000008152600401610fa790611b04565b60405180910390fd5b8181036000808673ffffffffffffffffffffffffffffffffffffffff1673ffffffffffffffffffffffffffffffffffffffff16815260200190815260200160002081905550816000808573ffffffffffffffffffffffffffffffffffffffff1673ffffffffffffffffffffffffffffffffffffffff16815260200190815260200160002060008282546110439190611cac565b925050819055508273ffffffffffffffffffffffffffffffffffffffff168473ffffffffffffffffffffffffffffffffffffffff167fddf252ad1be2c89b69c2b068fc378daa952ba7f163c4a11628f55a4df523b3ef846040516110a79190611c44565b60405180910390a36110ba8484846112ae565b50505050565b611143846323b872dd60e01b8585856040516024016110e1939291906119cc565b604051602081830303815290604052907bffffffffffffffffffffffffffffffffffffffffffffffffffffffff19166020820180517bffffffffffffffffffffffffffffffffffffffffffffffffffffffff83818316178352505050506112b3565b50505050565b600073ffffffffffffffffffffffffffffffffffffffff168273ffffffffffffffffffffffffffffffffffffffff1614156111b9576040517f08c379a00000000000000000000000000000000000000000000000000000000081526004016111b090611c24565b60405180910390fd5b6111c5600083836112a9565b80600260008282546111d79190611cac565b92505081905550806000808473ffffffffffffffffffffffffffffffffffffffff1673ffffffffffffffffffffffffffffffffffffffff168152602001908152602001600020600082825461122c9190611cac565b925050819055508173ffffffffffffffffffffffffffffffffffffffff16600073ffffffffffffffffffffffffffffffffffffffff167fddf252ad1be2c89b69c2b068fc378daa952ba7f163c4a11628f55a4df523b3ef836040516112919190611c44565b60405180910390a36112a5600083836112ae565b5050565b505050565b505050565b6000611315826040518060400160405280602081526020017f5361666545524332303a206c6f772d6c6576656c2063616c6c206661696c65648152508573ffffffffffffffffffffffffffffffffffffffff1661137a9092919063ffffffff16565b905060008151111561137557808060200190518101906113359190611674565b611374576040517f08c379a000000000000000000000000000000000000000000000000000000000815260040161136b90611be4565b60405180910390fd5b5b505050565b60606113898484600085611392565b90509392505050565b6060824710156113d7576040517f08c379a00000000000000000000000000000000000000000000000000000000081526004016113ce90611b24565b60405180910390fd5b6113e0856114a6565b61141f576040517f08c379a000000000000000000000000000000000000000000000000000000000815260040161141690611bc4565b60405180910390fd5b6000808673ffffffffffffffffffffffffffffffffffffffff168587604051611448919061199a565b60006040518083038185875af1925050503d8060008114611485576040519150601f19603f3d011682016040523d82523d6000602084013e61148a565b606091505b509150915061149a8282866114b9565b92505050949350505050565b600080823b905060008111915050919050565b606083156114c957829050611519565b6000835111156114dc5782518084602001fd5b816040517f08c379a00000000000000000000000000000000000000000000000000000000081526004016115109190611a62565b60405180910390fd5b9392505050565b60008135905061152f8161227a565b92915050565b60008151905061154481612291565b92915050565b600081359050611559816122a8565b92915050565b60008151905061156e816122a8565b92915050565b60006020828403121561158a57611589611e84565b5b600061159884828501611520565b91505092915050565b600080604083850312156115b8576115b7611e84565b5b60006115c685828601611520565b92505060206115d785828601611520565b9150509250929050565b6000806000606084860312156115fa576115f9611e84565b5b600061160886828701611520565b935050602061161986828701611520565b925050604061162a8682870161154a565b9150509250925092565b6000806040838503121561164b5761164a611e84565b5b600061165985828601611520565b925050602061166a8582860161154a565b9150509250929050565b60006020828403121561168a57611689611e84565b5b600061169884828501611535565b91505092915050565b6000602082840312156116b7576116b6611e84565b5b60006116c58482850161154a565b91505092915050565b6000602082840312156116e4576116e3611e84565b5b60006116f28482850161155f565b91505092915050565b61170481611d36565b82525050565b61171381611d48565b82525050565b600061172482611c7a565b61172e8185611c90565b935061173e818560208601611dc1565b80840191505092915050565b61175381611d8b565b82525050565b600061176482611c85565b61176e8185611c9b565b935061177e818560208601611dc1565b61178781611e89565b840191505092915050565b600061179f602383611c9b565b91506117aa82611e9a565b604082019050919050565b60006117c2602283611c9b565b91506117cd82611ee9565b604082019050919050565b60006117e5601e83611c9b565b91506117f082611f38565b602082019050919050565b6000611808602283611c9b565b915061181382611f61565b604082019050919050565b600061182b602683611c9b565b915061183682611fb0565b604082019050919050565b600061184e602683611c9b565b915061185982611fff565b604082019050919050565b6000611871602883611c9b565b915061187c8261204e565b604082019050919050565b6000611894602183611c9b565b915061189f8261209d565b604082019050919050565b60006118b7602583611c9b565b91506118c2826120ec565b604082019050919050565b60006118da602483611c9b565b91506118e58261213b565b604082019050919050565b60006118fd601d83611c9b565b91506119088261218a565b602082019050919050565b6000611920602a83611c9b565b915061192b826121b3565b604082019050919050565b6000611943602583611c9b565b915061194e82612202565b604082019050919050565b6000611966601f83611c9b565b915061197182612251565b602082019050919050565b61198581611d74565b82525050565b61199481611d7e565b82525050565b60006119a68284611719565b915081905092915050565b60006020820190506119c660008301846116fb565b92915050565b60006060820190506119e160008301866116fb565b6119ee60208301856116fb565b6119fb604083018461197c565b949350505050565b6000604082019050611a1860008301856116fb565b611a25602083018461197c565b9392505050565b6000602082019050611a41600083018461170a565b92915050565b6000602082019050611a5c600083018461174a565b92915050565b60006020820190508181036000830152611a7c8184611759565b905092915050565b60006020820190508181036000830152611a9d81611792565b9050919050565b60006020820190508181036000830152611abd816117b5565b9050919050565b60006020820190508181036000830152611add816117d8565b9050919050565b60006020820190508181036000830152611afd816117fb565b9050919050565b60006020820190508181036000830152611b1d8161181e565b9050919050565b60006020820190508181036000830152611b3d81611841565b9050919050565b60006020820190508181036000830152611b5d81611864565b9050919050565b60006020820190508181036000830152611b7d81611887565b9050919050565b60006020820190508181036000830152611b9d816118aa565b9050919050565b60006020820190508181036000830152611bbd816118cd565b9050919050565b60006020820190508181036000830152611bdd816118f0565b9050919050565b60006020820190508181036000830152611bfd81611913565b9050919050565b60006020820190508181036000830152611c1d81611936565b9050919050565b60006020820190508181036000830152611c3d81611959565b9050919050565b6000602082019050611c59600083018461197c565b92915050565b6000602082019050611c74600083018461198b565b92915050565b600081519050919050565b600081519050919050565b600081905092915050565b600082825260208201905092915050565b6000611cb782611d74565b9150611cc283611d74565b9250827fffffffffffffffffffffffffffffffffffffffffffffffffffffffffffffffff03821115611cf757611cf6611e26565b5b828201905092915050565b6000611d0d82611d74565b9150611d1883611d74565b925082821015611d2b57611d2a611e26565b5b828203905092915050565b6000611d4182611d54565b9050919050565b60008115159050919050565b600073ffffffffffffffffffffffffffffffffffffffff82169050919050565b6000819050919050565b600060ff82169050919050565b6000611d9682611d9d565b9050919050565b6000611da882611daf565b9050919050565b6000611dba82611d54565b9050919050565b60005b83811015611ddf578082015181840152602081019050611dc4565b83811115611dee576000848401525b50505050565b60006002820490506001821680611e0c57607f821691505b60208210811415611e2057611e1f611e55565b5b50919050565b7f4e487b7100000000000000000000000000000000000000000000000000000000600052601160045260246000fd5b7f4e487b7100000000000000000000000000000000000000000000000000000000600052602260045260246000fd5b600080fd5b6000601f19601f8301169050919050565b7f45524332303a207472616e7366657220746f20746865207a65726f206164647260008201527f6573730000000000000000000000000000000000000000000000000000000000602082015250565b7f45524332303a206275726e20616d6f756e7420657863656564732062616c616e60008201527f6365000000000000000000000000000000000000000000000000000000000000602082015250565b7f4465706f73697420616d6f756e742063616e6e6f74206265207a65726f2e0000600082015250565b7f45524332303a20617070726f766520746f20746865207a65726f20616464726560008201527f7373000000000000000000000000000000000000000000000000000000000000602082015250565b7f45524332303a207472616e7366657220616d6f756e742065786365656473206260008201527f616c616e63650000000000000000000000000000000000000000000000000000602082015250565b7f416464726573733a20696e73756666696369656e742062616c616e636520666f60008201527f722063616c6c0000000000000000000000000000000000000000000000000000602082015250565b7f45524332303a207472616e7366657220616d6f756e742065786365656473206160008201527f6c6c6f77616e6365000000000000000000000000000000000000000000000000602082015250565b7f45524332303a206275726e2066726f6d20746865207a65726f2061646472657360008201527f7300000000000000000000000000000000000000000000000000000000000000602082015250565b7f45524332303a207472616e736665722066726f6d20746865207a65726f20616460008201527f6472657373000000000000000000000000000000000000000000000000000000602082015250565b7f45524332303a20617070726f76652066726f6d20746865207a65726f2061646460008201527f7265737300000000000000000000000000000000000000000000000000000000602082015250565b7f416464726573733a2063616c6c20746f206e6f6e2d636f6e7472616374000000600082015250565b7f5361666545524332303a204552433230206f7065726174696f6e20646964206e60008201527f6f74207375636365656400000000000000000000000000000000000000000000602082015250565b7f45524332303a2064656372656173656420616c6c6f77616e63652062656c6f7760008201527f207a65726f000000000000000000000000000000000000000000000000000000602082015250565b7f45524332303a206d696e7420746f20746865207a65726f206164647265737300600082015250565b61228381611d36565b811461228e57600080fd5b50565b61229a81611d48565b81146122a557600080fd5b50565b6122b181611d74565b81146122bc57600080fd5b5056fea2646970667358221220f38d01f9d1bdb8e7ad09c4199703597eb3975a418f23343fe26b5072c355ee9c64736f6c63430008070033",
  "immutableReferences": {},
  "source": "// SPDX-License-Identifier: MIT\npragma solidity ^0.8.7;\n\nimport \"@openzeppelin/contracts/token/ERC20/IERC20.sol\";\nimport \"@openzeppelin/contracts/utils/Address.sol\";\nimport \"@openzeppelin/contracts/token/ERC20/utils/SafeERC20.sol\";\nimport \"@openzeppelin/contracts/token/ERC20/ERC20.sol\";\n\ncontract FarmToken is ERC20 {\n  using Address for address;\n  using SafeERC20 for IERC20;\n\n  IERC20 public token;\n\n  constructor(address _token) ERC20(\"FarmToken\", \"FRM\") {\n    token = IERC20(_token);\n  }\n\n  function balance() public view returns(uint256) {\n    return token.balanceOf(address(this));\n  }\n\n  function deposit(uint256 amount) public returns(bool) {\n    require(amount > 0, \"Deposit amount cannot be zero.\");\n    token.safeTransferFrom(msg.sender, address(this), amount);\n    _mint(msg.sender, amount);\n    return true;\n  } \n\n  function withDraw(uint256 amount) public returns(bool) {\n    _burn(msg.sender, amount);\n    token.safeTransfer(msg.sender, amount);\n    return true;\n  }\n}\n",
  "sourcePath": "/home/sharjeel/D Drive/defi+dapps/learn-solidity/p3-farm-token/contracts/FarmToken.sol",
  "compiler": {
    "name": "solc",
    "version": "0.8.7+commit.e28d00a7.Emscripten.clang"
  },
  "schemaVersion": "3.4.3",
  "updatedAt": "2021-09-10T15:10:11.879Z",
  "devdoc": {
    "kind": "dev",
    "methods": {
      "allowance(address,address)": {
        "details": "See {IERC20-allowance}."
      },
      "approve(address,uint256)": {
        "details": "See {IERC20-approve}. Requirements: - `spender` cannot be the zero address."
      },
      "balanceOf(address)": {
        "details": "See {IERC20-balanceOf}."
      },
      "decimals()": {
        "details": "Returns the number of decimals used to get its user representation. For example, if `decimals` equals `2`, a balance of `505` tokens should be displayed to a user as `5.05` (`505 / 10 ** 2`). Tokens usually opt for a value of 18, imitating the relationship between Ether and Wei. This is the value {ERC20} uses, unless this function is overridden; NOTE: This information is only used for _display_ purposes: it in no way affects any of the arithmetic of the contract, including {IERC20-balanceOf} and {IERC20-transfer}."
      },
      "decreaseAllowance(address,uint256)": {
        "details": "Atomically decreases the allowance granted to `spender` by the caller. This is an alternative to {approve} that can be used as a mitigation for problems described in {IERC20-approve}. Emits an {Approval} event indicating the updated allowance. Requirements: - `spender` cannot be the zero address. - `spender` must have allowance for the caller of at least `subtractedValue`."
      },
      "increaseAllowance(address,uint256)": {
        "details": "Atomically increases the allowance granted to `spender` by the caller. This is an alternative to {approve} that can be used as a mitigation for problems described in {IERC20-approve}. Emits an {Approval} event indicating the updated allowance. Requirements: - `spender` cannot be the zero address."
      },
      "name()": {
        "details": "Returns the name of the token."
      },
      "symbol()": {
        "details": "Returns the symbol of the token, usually a shorter version of the name."
      },
      "totalSupply()": {
        "details": "See {IERC20-totalSupply}."
      },
      "transfer(address,uint256)": {
        "details": "See {IERC20-transfer}. Requirements: - `recipient` cannot be the zero address. - the caller must have a balance of at least `amount`."
      },
      "transferFrom(address,address,uint256)": {
        "details": "See {IERC20-transferFrom}. Emits an {Approval} event indicating the updated allowance. This is not required by the EIP. See the note at the beginning of {ERC20}. Requirements: - `sender` and `recipient` cannot be the zero address. - `sender` must have a balance of at least `amount`. - the caller must have allowance for ``sender``'s tokens of at least `amount`."
      }
    },
    "version": 1
  },
  "userdoc": {
    "kind": "user",
    "methods": {},
    "version": 1
  }
}