{
  "contractName": "A",
  "abi": [
    {
      "inputs": [],
      "stateMutability": "nonpayable",
      "type": "constructor"
    },
    {
      "inputs": [
        {
          "internalType": "uint256",
          "name": "",
          "type": "uint256"
        }
      ],
      "name": "myArray",
      "outputs": [
        {
          "internalType": "uint256",
          "name": "",
          "type": "uint256"
        }
      ],
      "stateMutability": "view",
      "type": "function",
      "constant": true
    },
    {
      "inputs": [],
      "name": "getLength",
      "outputs": [
        {
          "internalType": "uint256",
          "name": "length",
          "type": "uint256"
        }
      ],
      "stateMutability": "view",
      "type": "function",
      "constant": true
    },
    {
      "inputs": [],
      "name": "sum",
      "outputs": [
        {
          "internalType": "uint256",
          "name": "result",
          "type": "uint256"
        }
      ],
      "stateMutability": "view",
      "type": "function",
      "constant": true
    },
    {
      "inputs": [],
      "name": "testArray",
      "outputs": [
        {
          "internalType": "bool",
          "name": "",
          "type": "bool"
        }
      ],
      "stateMutability": "pure",
      "type": "function",
      "constant": true
    }
  ],
  "bytecode": "0x608060405234801561001057600080fd5b506040518060600160405280600160ff168152602001600260ff168152602001600360ff168152506000906003610048929190610078565b506000600490806001815401808255809150506001900390600052602060002001600090919091909150556100e7565b8280548282559060005260206000209081019282156100b9579160200282015b828111156100b8578251829060ff16905591602001919060010190610098565b5b5090506100c691906100ca565b5090565b5b808211156100e35760008160009055506001016100cb565b5090565b61051a806100f66000396000f3fe608060405234801561001057600080fd5b506004361061004c5760003560e01c80632283bffd14610051578063853255cc1461006f578063be1c766b1461008d578063cc3e57d9146100ab575b600080fd5b6100596100db565b6040516100669190610321565b60405180910390f35b610077610230565b604051610084919061033c565b60405180910390f35b610095610291565b6040516100a2919061033c565b60405180910390f35b6100c560048036038101906100c091906102d6565b61029d565b6040516100d2919061033c565b60405180910390f35b600080600790506000600767ffffffffffffffff8111156100ff576100fe610499565b5b60405190808252806020026020018201604052801561012d5781602001602082028036833780820191505090505b50905060008267ffffffffffffffff81111561014c5761014b610499565b5b6040519080825280601f01601f19166020018201604052801561017e5781602001600182028036833780820191505090505b50905060078251146101935761019261040c565b5b828151146101a4576101a361040c565b5b600a826006815181106101ba576101b961046a565b5b602002602001018181525050600a826006815181106101dc576101db61046a565b5b6020026020010151146101f2576101f161040c565b5b60006040518060600160405280600181526020016002815260200160038152509050600380146102255761022461040c565b5b600194505050505090565b600080600090505b60008054905081101561028d576000811461027a57600081815481106102615761026061046a565b5b9060005260206000200154826102779190610357565b91505b8080610285906103c3565b915050610238565b5090565b60008080549050905090565b600081815481106102ad57600080fd5b906000526020600020016000915090505481565b6000813590506102d0816104cd565b92915050565b6000602082840312156102ec576102eb6104c8565b5b60006102fa848285016102c1565b91505092915050565b61030c816103ad565b82525050565b61031b816103b9565b82525050565b60006020820190506103366000830184610303565b92915050565b60006020820190506103516000830184610312565b92915050565b6000610362826103b9565b915061036d836103b9565b9250827fffffffffffffffffffffffffffffffffffffffffffffffffffffffffffffffff038211156103a2576103a161043b565b5b828201905092915050565b60008115159050919050565b6000819050919050565b60006103ce826103b9565b91507fffffffffffffffffffffffffffffffffffffffffffffffffffffffffffffffff8214156104015761040061043b565b5b600182019050919050565b7f4e487b7100000000000000000000000000000000000000000000000000000000600052600160045260246000fd5b7f4e487b7100000000000000000000000000000000000000000000000000000000600052601160045260246000fd5b7f4e487b7100000000000000000000000000000000000000000000000000000000600052603260045260246000fd5b7f4e487b7100000000000000000000000000000000000000000000000000000000600052604160045260246000fd5b600080fd5b6104d6816103b9565b81146104e157600080fd5b5056fea264697066735822122037c232a0dc48693ecc5efdc92d4afd0f35559ff9a4b15666efdad8e5e26b29e464736f6c63430008070033",
  "immutableReferences": {},
  "source": "// SPDX-License-Identifier: MIT\npragma solidity >=0.4.22 <0.9.0;\n\ncontract A {\n  uint[] public myArray;\n\n  constructor() {\n    myArray = [1, 2, 3];\n    myArray.push(4);\n  }\n\n  function getLength() public view returns(uint length) {\n    length = myArray.length;\n  }\n\n  function sum() public view returns(uint result) {\n    for (uint index = 0; index < myArray.length; index++) {\n      if (index != 0) {\n        result += myArray[index];\n      }\n    }\n  }\n\n  function testArray() public pure returns(bool) {\n    uint len = 7;\n\n    // Dynamic Array\n    uint[] memory a = new uint[](7);\n\n    // bytes is same as byte[]\n    bytes memory b = new bytes(len);\n\n    assert(a.length == 7);\n    assert(b.length == len);\n\n    // Access array members\n    a[6] = 10;\n\n    // Test array members\n    assert(a[6] == 10);\n\n    // Static Array\n    uint[3] memory c = [uint(1), 2, 3];\n    assert(c.length == 3);\n\n    return true;\n  }\n}\n",
  "sourcePath": "/home/sharjeel/D Drive/defi+dapps/learn-dapps/step04/contracts/A.sol",
  "compiler": {
    "name": "solc",
    "version": "0.8.7+commit.e28d00a7.Emscripten.clang"
  },
  "schemaVersion": "3.4.3",
  "updatedAt": "2021-09-02T09:44:47.277Z",
  "networkType": "ethereum",
  "devdoc": {
    "kind": "dev",
    "methods": {},
    "version": 1
  },
  "userdoc": {
    "kind": "user",
    "methods": {},
    "version": 1
  }
}