{
  "contractName": "Migrations",
  "abi": [
    {
      "inputs": [],
      "stateMutability": "nonpayable",
      "type": "constructor"
    },
    {
      "inputs": [
        {
          "internalType": "uint256",
          "name": "",
          "type": "uint256"
        }
      ],
      "name": "myArray",
      "outputs": [
        {
          "internalType": "uint256",
          "name": "",
          "type": "uint256"
        }
      ],
      "stateMutability": "view",
      "type": "function"
    }
  ],
  "bytecode": "0x608060405234801561001057600080fd5b506040518060600160405280600160ff168152602001600260ff168152602001600360ff168152506000906003610048929190610078565b506000600490806001815401808255809150506001900390600052602060002001600090919091909150556100e7565b8280548282559060005260206000209081019282156100b9579160200282015b828111156100b8578251829060ff16905591602001919060010190610098565b5b5090506100c691906100ca565b5090565b5b808211156100e35760008160009055506001016100cb565b5090565b610134806100f66000396000f3fe6080604052348015600f57600080fd5b506004361060285760003560e01c8063cc3e57d914602d575b600080fd5b60436004803603810190603f9190608d565b6057565b604051604e919060c2565b60405180910390f35b60008181548110606657600080fd5b906000526020600020016000915090505481565b60008135905060878160ea565b92915050565b60006020828403121560a057609f60e5565b5b600060ac84828501607a565b91505092915050565b60bc8160db565b82525050565b600060208201905060d5600083018460b5565b92915050565b6000819050919050565b600080fd5b60f18160db565b811460fb57600080fd5b5056fea2646970667358221220cc7c5890bda7ecfffefb97cbff4324abee197be3ae98cb64d3264128c008a57164736f6c63430008070033",
  "immutableReferences": {},
  "source": "// SPDX-License-Identifier: MIT\npragma solidity >=0.4.22 <0.9.0;\n\ncontract Migrations {\n  uint[] public myArray;\n\n  constructor() {\n    myArray = [1, 2, 3];\n    myArray.push(4);\n  }\n}\n",
  "sourcePath": "/home/sharjeel/D Drive/defi+dapps/learn-dapps/step04/contracts/Migrations.sol",
  "compiler": {
    "name": "solc",
    "version": "0.8.7+commit.e28d00a7.Emscripten.clang"
  },
  "schemaVersion": "3.4.3",
  "updatedAt": "2021-09-02T09:44:47.292Z",
  "networkType": "ethereum",
  "devdoc": {
    "kind": "dev",
    "methods": {},
    "version": 1
  },
  "userdoc": {
    "kind": "user",
    "methods": {},
    "version": 1
  }
}