{
  "contractName": "A",
  "abi": [
    {
      "constant": true,
      "inputs": [
        {
          "internalType": "uint256",
          "name": "",
          "type": "uint256"
        }
      ],
      "name": "number",
      "outputs": [
        {
          "internalType": "uint256",
          "name": "",
          "type": "uint256"
        }
      ],
      "payable": false,
      "stateMutability": "view",
      "type": "function"
    },
    {
      "constant": true,
      "inputs": [
        {
          "internalType": "uint256",
          "name": "",
          "type": "uint256"
        }
      ],
      "name": "users",
      "outputs": [
        {
          "internalType": "address",
          "name": "",
          "type": "address"
        }
      ],
      "payable": false,
      "stateMutability": "view",
      "type": "function"
    },
    {
      "constant": false,
      "inputs": [
        {
          "internalType": "address",
          "name": "_user",
          "type": "address"
        }
      ],
      "name": "addUser",
      "outputs": [],
      "payable": false,
      "stateMutability": "nonpayable",
      "type": "function"
    },
    {
      "constant": false,
      "inputs": [
        {
          "internalType": "uint8",
          "name": "_number",
          "type": "uint8"
        }
      ],
      "name": "addNumber",
      "outputs": [],
      "payable": false,
      "stateMutability": "nonpayable",
      "type": "function"
    }
  ],
  "bytecode": "0x608060405234801561001057600080fd5b5061033c806100206000396000f3fe608060405234801561001057600080fd5b506004361061004c5760003560e01c8063365b98b214610051578063421b2d8b146100bf578063431aabc2146101035780639b64ed5f14610145575b600080fd5b61007d6004803603602081101561006757600080fd5b8101908080359060200190929190505050610176565b604051808273ffffffffffffffffffffffffffffffffffffffff1673ffffffffffffffffffffffffffffffffffffffff16815260200191505060405180910390f35b610101600480360360208110156100d557600080fd5b81019080803573ffffffffffffffffffffffffffffffffffffffff1690602001909291905050506101a9565b005b61012f6004803603602081101561011957600080fd5b81019080803590602001909291905050506102b4565b6040518082815260200191505060405180910390f35b6101746004803603602081101561015b57600080fd5b81019080803560ff1690602001909291905050506102d5565b005b600181600a811061018357fe5b016000915054906101000a900473ffffffffffffffffffffffffffffffffffffffff1681565b600a600b60009054906101000a900460ff1660ff1610610231576040517f08c379a00000000000000000000000000000000000000000000000000000000081526004018080602001828103825260208152602001807f6e756d626572206f66207573657273206973206c696d6974656420746f20313081525060200191505060405180910390fd5b806001600b600081819054906101000a900460ff168092919060010191906101000a81548160ff021916908360ff16021790555060ff16600a811061027257fe5b0160006101000a81548173ffffffffffffffffffffffffffffffffffffffff021916908373ffffffffffffffffffffffffffffffffffffffff16021790555050565b600081815481106102c157fe5b906000526020600020016000915090505481565b6000819080600181540180825580915050906001820390600052602060002001600090919260ff16909190915055505056fea265627a7a72315820ac0fed131ac0d0646133a263df755c3adfeb6ca11851b8451859c50f2cdb3ca464736f6c63430005100032",
  "source": "// SPDX-License-Identifier: MIT\npragma solidity >=0.4.22 <0.9.0;\n\ncontract A {\n  uint[] public number;\n  address[10] public users;\n  uint8 usersCount;\n\n  function addUser(address _user) external {\n    require(usersCount < 10, \"number of users is limited to 10\");\n    users[usersCount++] = _user;\n  }\n\n  function addNumber(uint8 _number) external {\n    number.push(_number);\n  }\n}\n",
  "sourcePath": "/home/sharjeel/D Drive/defi+dapps/learn-dapps/step03/contracts/A.sol",
  "compiler": {
    "name": "solc",
    "version": "0.5.16+commit.9c3226ce.Emscripten.clang"
  },
  "schemaVersion": "3.4.3",
  "updatedAt": "2021-09-01T19:37:30.177Z",
  "networkType": "ethereum",
  "devdoc": {
    "methods": {}
  },
  "userdoc": {
    "methods": {}
  }
}